:107000000C9434380C9451380C9451380C945138F9
:107010000C9451380C9451380C9451380C945138CC
:107020000C9451380C9451380C9451380C945138BC
:107030000C9451380C9451380C9451380C945138AC
:107040000C9451380C9451380C9451380C9451389C
:107050000C9451380C9451380C9451380C9451388C
:107060000C9451380C94513811241FBECFEFD8E046
:10707000DEBFCDBF11E0A0E0B1E0E2EBF9E702C076
:1070800005900D92AA33B107D9F722E0AAE3B1E047
:1070900001C01D92A734B207E1F70E94B03A0C94E8
:1070A000D73C0C940038E0E0F0E085919491019693
:1070B00049F4E2E0F0E085919491019619F4109280
:1070C0003C010895E0913A01F0913B0109949091BF
:1070D000C00095FFFCCF8093C6000895CF93982FF2
:1070E0009595959595959595905D8F708A3014F04E
:1070F000C7E501C0C0E3C80F892F0E9467388C2FF5
:10710000CF910C946738CF92DF92EF92FF92C12C0F
:10711000D12C76018091C00087FD10C08FEFC81A76
:10712000D80AE80AF80A81E2C81681EAD80687E098
:10713000E806F10478F30E945338ECCF8091C60042
:10714000FF90EF90DF90CF900895CF930E94833807
:10715000C82F0E946738C13614F089EA03C0C033D3
:107160001CF080ED8C0F01C08C2FCF910895CF9330
:107170000E94A538C82F0E94A53890E1C99F800DB4
:107180001124CF910895CF93C82FCC2321F00E94D2
:107190008338C150FACFCF910895CF93C82F0E9462
:1071A0008338803251F484E10E9467388C2F0E942A
:1071B000673880E1CF910C94673880913C018F5FF4
:1071C00080933C01853019F4CF910C945338CF91C2
:1071D00008950E948338803231F484E10E94673838
:1071E00080E10C94673880913C018F5F80933C0173
:1071F000853011F40C94533808958823B1F02D9AFA
:107200002FEF30E792E0215030409040E1F700C08E
:1072100000002D982FEF30E792E021503040904051
:10722000E1F700C000008150E8CF08959B01AC0158
:10723000A3E0B0E00E94BD3C9B01AC01E2E096956A
:10724000879577956795EA95D1F77E5E85489F4F3C
:107250000E949B3C23502093460220934502599A5A
:10726000519A509808955998909146029A95F1F73D
:1072700098E080FF02C0599A01C0599885952091E5
:1072800046022A95F1F79150A1F7599A809146024A
:107290008A95F1F70895CF93DF93EC0189918823C4
:1072A00019F00E943339FACFDF91CF910895FC0194
:1072B0000097C9F4489BFECF4899FECF2091450224
:1072C000822F90E0959587958A95F1F798E080E078
:1072D0002AC048991CC04150510961097109408375
:1072E000518362837383408151816281738141152F
:1072F00051056105710559F0ECCF489BDFCF415036
:10730000510961097109408351836283738340810C
:10731000518162817381411551056105710571F0DB
:10732000ECCF915041F0322F3A95F1F78695489B7A
:10733000F8CF8068F6CF489BFECF089580E008958F
:10734000CF93DF93EC018991882349F00E94333970
:107350008FEC97E00197F1F700C00000F4CFDF91C8
:10736000CF9108950E94A03984E091E00E94A03955
:1073700080E090E00E9457398E33D1F708950F9343
:107380001F93CF93DF93EC018E018881882359F0FE
:1073900080E090E00E9457392196F801908189178A
:1073A00099F380E001C081E0DF91CF911F910F91AF
:1073B00008953A9A42983299FECF2FEF80E792E0F3
:1073C000215080409040E1F700C00000429A329B7B
:1073D000FECF08953A9A429A329BFECF089581E0FB
:1073E00091E00E94A0398FE19EE40197F1F700C07F
:1073F000000087E091E00E94A0398FE19EE40197B0
:10740000F1F700C0000008958BE091E00E94A039E0
:107410008FE19EE40197F1F700C0000008950E94FB
:10742000EF398BE191E00E94B2390E94043A8FE17A
:107430009EE40197F1F700C000000895FF920F93BA
:107440001F93CF93DF9300D000D0CDB7DEB782E497
:1074500080937C0086E880937A0080917A00806433
:1074600080937A0080917A0086FDFCCF809179002C
:107470000091780010E0182B80917A008F7780932C
:107480007A000E94EA3960E076E980E090E00E94AC
:107490001639C80185569109FF24F394873C91055C
:1074A00008F0F12C0436110508F04DC081E191E09F
:1074B0000E94BF39811147C060E072EC81E090E02A
:1074C0000E9416390E94EF398AE191E00E94B23998
:1074D0008FE191E00E94B2398AE291E00E94B239D4
:1074E00080E391E00E94B23985E391E00E94B239D5
:1074F00060E076E980E090E00E94163981E191E059
:107500000E94BF390E94043AFF2001F180E896E909
:10751000A8E9B0E089839A83AB83BC8389819A818F
:10752000AB81BC81892B8A2B8B2B81F0CE010196FC
:107530000E945739803391F7CE0101960E94573946
:10754000803261F703C0F110BDCFDCCF0F900F90F8
:107550000F900F90DF91CF911F910F91FF900895A1
:1075600094B784B7877F84BF88E10FB6F89480937F
:107570006000109260000FBE93FF0E941E3A3A9A7C
:10758000429A0000E0E0F0E0E49182E08093C000E5
:1075900089E18093C4001092C50088E18093C10006
:1075A00086E08093C2005098589A259A81E00E9404
:1075B000FD38FF24F3940E948338803309F442C0DD
:1075C0008133E1F40E948338803209F0ABC184E159
:1075D0000E94673881E40E94673886E50E94673818
:1075E00082E50E94673880E20E94673889E40E9441
:1075F000673883E50E94673880E58BC1803439F4B1
:107600000E9483388638F0F00E9483381BC0813492
:10761000A1F40E948338803811F482E003C08138DD
:1076200021F481E00E94CD38C6CF823811F480E188
:10763000F9CF8839F1F583E0F5CF823431F484E174
:107640000E94C3380E94E938B6CF853411F485E032
:10765000F7CF982F9D7F9035A9F3813529F40E94AB
:10766000E9380E945338A7CF853549F40E94833802
:10767000809343020E94833880934402E3CF86358F
:10768000D1F40E948338803389F40E9483380E94A9
:107690008338182F0E948338111102C08EE1C2CFA7
:1076A000113011F485E9BECF8FE0BCCF83E00E949A
:1076B000C33880E0B7CF843609F0C6C00E94833853
:1076C000809342020E94833880934102809140025D
:1076D0008E7F809340020E948338853429F4809104
:1076E000400281608093400200E411E080914102F9
:1076F000909142029801205431402817390730F404
:107700000E948338F80181938F01F0CF0E94833863
:10771000803209F007C1209140028091430290918C
:10772000440220FF29C0880F991F90934402809340
:107730004302E0E4F1E080914102909142029F0116
:10774000205431402817390708F07CC0F999FECF42
:10775000809143029091440292BD81BD819180BD90
:10776000FA9AF99A8091430290914402019690937B
:10777000440280934302DFCF20914402220F220B68
:107780002F2120933F01880F991F909344028093EB
:1077900043028091410280FF09C080914102909193
:1077A000420201969093420280934102F894F99923
:1077B000FECF1127E0914302F0914402C0E4D1E0F2
:1077C0008091410290914202103091F40091570053
:1077D00001700130D9F303E000935700E895009160
:1077E000570001700130D9F301E100935700E8958B
:1077F000099019900091570001700130D9F301E010
:1078000000935700E8951395103498F011270091D4
:10781000570001700130D9F305E000935700E89557
:107820000091570001700130D9F301E10093570036
:10783000E8953296029709F0C7CF103011F0029602
:10784000E5CF112484E165C0843709F052C00E945D
:107850008338809342020E94833880934102809152
:10786000430290914402880F991F909344028093A1
:1078700043020E94833890914002853411F4916054
:1078800001C09E7F909340020E948338803209F0AD
:1078900092CE84E10E94673800E010E080914102BE
:1078A0009091420208171907B0F58091400280FFBD
:1078B0000BC0F999FECF809143029091440292BD92
:1078C00081BDF89A80B507C081FD07C0E0914302F1
:1078D000F091440284910E94673880914302909114
:1078E0004402019690934402809343020F5F1F4F1E
:1078F000D5CF8537A1F40E948338803299F484E192
:107900000E9467388EE10E94673885E90E946738D7
:107910008FE00E94673880E10E9467384CCE86373E
:1079200009F4C7CE80913C018F5F80933C01853084
:1079300009F041CE96CEA1E21A2EAA1BBB1BFD0177
:107940000DC0AA1FBB1FEE1FFF1FA217B307E4073E
:10795000F50720F0A21BB30BE40BF50B661F771F96
:10796000881F991F1A9469F7609570958095909576
:107970009B01AC01BD01CF0108950E94C83CA59FA9
:10798000900DB49F900DA49F800D911D112408951A
:10799000A29FB001B39FC001A39F700D811D112450
:1079A000911DB29F700D811D1124911D0895F894B1
:0279B000FFCF07
:1079B200802424240D0A002B0D0A002D2D2D0D0AE2
:1079C20000255245424F4F54250053462C31005357
:1079D2002D2C5243536E61696C0053552C33380081
:0A79E20053472C3200522C310000F4
:040000030000700089
:00000001FF
