:100000000C9466000C948E000C948E000C94920458
:100010000C9492040C9492040C948E000C948E0018
:100020000C948E000C948E000C948E000C9414058D
:100030000C948E000C948E000C94D5050C948E00BC
:100040000C941A030C948E000C94CC0A0C94A60AFF
:100050000C948E000C94FB050C948E000C948E0076
:100060000C9464030C948E00940CA90CB80CCA0C6C
:10007000E20CEB0CF90C060D0A0D00000000240048
:1000800027002A0000000000250028002B0004049F
:100090000404040404040202020202020303030330
:1000A000030301020408102040800102040810200C
:1000B00001020408102000000008000201000003F3
:1000C00004070000000000000000FE0A11241FBE0B
:1000D000CFEFD8E0DEBFCDBF11E0A0E0B1E0ECE0B3
:1000E000FCE102C005900D92A433B107D9F723E0DB
:1000F000A4E3B1E001C01D92AB35B207E1F710E017
:10010000C6E6D0E004C02197FE010E94F20DC5367C
:10011000D107C9F70E94460B0C94040E0C94000002
:1001200085ED8093BC008091BC0084FDFCCF1092D3
:10013000D40108954091AE01262F30E0240F311DE7
:1001400021323105DCF42091D4012430C9F4FC01C2
:1001500080E090E0861758F43091AE012191DC01E7
:10016000A457BE4FA30FB11D2C930196F3CF8091DE
:10017000AE01680F6093AE0180E0089581E00895BC
:1001800082E00895E0918A01F0918B01309729F087
:10019000109289011092880109940895CF93DF93FA
:1001A000AC01E091FF01F09100023097F1F09091E5
:1001B0008701809186019817C0F090E0292F30E0E8
:1001C0002617370754F4D901AA59BE4FEA01C20FC6
:1001D000D31F88818C939F5FF1CF1092870160932A
:1001E0008601CB01DF91CF910994DF91CF910895E2
:1001F0000895E091870180918601E81730F4F0E0DE
:10020000EA59FE4F808190E008958FEF9FEF0895A7
:100210009091870180918601981750F4E92FF0E0C2
:10022000EA59FE4F208130E09F5F9093870102C022
:100230002FEF3FEFC90108958091860190E0209152
:100240008701821B91090895CF93DF9300D0CDB72A
:10025000DEB7CB01642F49835A830E949A004981FB
:10026000842F5A81952F0F900F90DF91CF91089591
:10027000CF93DF931F92CDB7DEB7698361E0CE01E4
:1002800001960E949A0081E090E00F90DF91CF915B
:100290000895FC0190819C3070F5818128E830E060
:1002A000281B310987FD3395220F331F220F331F7F
:1002B000621773077CF0828128E532E0281B310940
:1002C00087FD3395220F331F220F331F62177307E9
:1002D0000CF49B014FB7F894892F90E0225031091C
:1002E000FC01EE0FFF1F8E0F9F1FFC01E05CFE4F15
:1002F000328321834FBF089590933D0180933C0149
:1003000080913C0190913D01009771F0019711F4AB
:100310008EE00BC080E0806480937C0080917A0046
:10032000806580937A0008958FE08E50F4CFDF923D
:10033000EF92FF920F931F93CF93DF93D82E162F38
:10034000072FD42FC1E0C40FC80F6EEF8FE192E0EA
:100350000E94170AED2EF12CB7016F5F7F4F8FE1DE
:1003600092E00E94170A6D2D8FE192E00E94170A19
:10037000A701612F702F8FE192E00E949309912FC6
:10038000E12FF02F8E2F891B8D1718F48191C80F44
:10039000F9CF6C2F8FE192E0DF91CF911F910F91F8
:1003A000FF90EF90DF900C94170ACF93DF93CDB7B7
:1003B000DEB728970FB6F894DEBF0FBECDBF9A8385
:1003C000898320913801309139014DE0429FC0016D
:1003D000439F900D11249C838B8380913A019091CF
:1003E0003B019E838D8318861F82613031F448E083
:1003F000BE016F5F7F4F81E006C0623031F44FE095
:1004000060E172E083E00E94970128960FB6F894AD
:10041000DEBF0FBECDBFDF91CF91089590E0FC010C
:10042000EA54FF4F3491FC01EE55FF4F2491FC013B
:10043000E257FF4FE491EE2309F43BC0332339F137
:10044000333091F038F43130A9F0323001F584B511
:100450008F7D12C0373091F03830A1F03430B9F4CC
:10046000809180008F7D03C0809180008F77809382
:1004700080000DC084B58F7784BD09C08091B00025
:100480008F7703C08091B0008F7D8093B000F0E043
:10049000EE0FFF1FEC57FF4FA591B4918FB7F89463
:1004A000EC91611103C020952E2301C02E2B2C93BB
:1004B0008FBF0895CF93DF9390E0FC01EE55FF4F7F
:1004C0002491FC01E257FF4F8491882361F190E071
:1004D000880F991FFC01E658FF4FC591D491FC018C
:1004E000EC57FF4FA591B491611109C09FB7F894E3
:1004F0008881209582238883EC912E230BC0623063
:1005000061F49FB7F8943881822F80958323888384
:10051000EC912E2B2C939FBF06C08FB7F894E881E7
:100520002E2B28838FBFDF91CF9108951F93CF93F8
:10053000DF93182FEB0161E00E945A02209711F41B
:1005400060E004C0CF3FD10539F461E0812FDF9135
:10055000CF911F910C940E02E12FF0E0EA54FF4F6F
:10056000E491E330F9F048F4E130B9F0E230A1F57C
:1005700084B5806284BDC8BD34C0E730E9F0E8309E
:1005800019F1E43049F58091800080628093800009
:10059000D0938B00C0938A0024C084B5806884BD4A
:1005A000C7BD1FC080918000806880938000D09379
:1005B0008900C093880015C08091B0008068809346
:1005C000B000C093B3000DC08091B00080628093F2
:1005D000B000C093B40005C0C038D1050CF0B5CF51
:1005E000AFCFDF91CF911F9108953FB7F8948091DD
:1005F000FB019091FC01A091FD01B091FE0126B597
:10060000A89B05C02F3F19F00196A11DB11D3FBF4A
:10061000BA2FA92F982F8827820F911DA11DB11DD8
:10062000BC01CD0143E0660F771F881F991F4A95D3
:10063000D1F708951F920F920FB60F9211242F93A6
:100640003F938F939F93AF93BF93809105029091B7
:100650000602A0910702B09108023091FA0126E04B
:10066000230F2D3720F40296A11DB11D05C029E8E6
:10067000230F0396A11DB11D2093FA01809305025B
:1006800090930602A0930702B09308028091FB01A9
:100690009091FC01A091FD01B091FE010196A11D78
:1006A000B11D8093FB019093FC01A093FD01B093D9
:1006B000FE01BF91AF919F918F913F912F910F902C
:1006C0000FBE0F901F9018951F920F920FB60F92AA
:1006D00011242F933F934F935F936F937F938F9347
:1006E0009F93AF93BF93EF93FF938091B900887F5F
:1006F000803609F49CC068F5883209F45BC090F438
:10070000803109F454C038F4882309F4F6C08830E5
:1007100009F44DC0F6C0883109F44CC0803209F4A8
:100720005DC0EFC0803409F468C048F4803309F438
:1007300055C0883309F0E5C08093D301D8C0803517
:1007400009F44FC0883509F45DC0883409F0D9C078
:10075000D6C0883909F4C7C0A8F4883709F467C03F
:1007600038F4883609F463C0803709F460C0C9C022
:10077000883809F4B8C0803909F45FC0803809F0BE
:10078000C0C05BC0803B09F486C038F4803A09F4ED
:1007900066C0883A09F47FC0B4C0803C09F4A7C0A1
:1007A000883C09F4A4C0883B09F48AC0AAC080919F
:1007B000F90110C09091F8018091F701981770F538
:1007C000E091F80181E08E0F8093F801F0E0E952AA
:1007D000FE4F80818093BB0085EC86C08093D3015F
:1007E0008EC0E091F80181E08E0F8093F801809136
:1007F000BB00F0E0E952FE4F80839091F8018091B8
:10080000F7016EC0E091F80181E08E0F8093F8014E
:100810008091BB00F0E0E952FE4F80838091D601C9
:1008200081116DC081E08093D50184EA61C083E0CD
:100830008093D4011092D201CFCF8091D201803227
:1008400008F051C0E091D20181E08E0F8093D20177
:100850008091BB00F0E0EE54FE4F8083BDCF85EC6D
:100860008093BC001092D4018091D201803230F488
:10087000E091D201F0E0EE54FE4F10826091D2017F
:1008800070E0E091B001F091B10182EB91E0099547
:100890001092D20136C084E08093D4011092AF014F
:1008A0001092AE01E091AC01F091AD0109958091FB
:1008B000AE01811105C081E08093AE0110928C01E0
:1008C000E091AF0181E08E0F8093AF01F0E0E4573B
:1008D000FE4F80818093BB009091AF018091AE016B
:1008E000981708F479CF85E88093BC000AC085EC9E
:1008F0008093BC001092D40104C01092D3010E94D6
:100900009000FF91EF91BF91AF919F918F917F9157
:100910006F915F914F913F912F910F900FBE0F906C
:100920001F9018951F920F920FB60F9211240F90DF
:100930000FBE0F901F9018951F93CF93DF93EC017C
:10094000162F88818C3008F04EC061E0812F0E9404
:100950005A028881E82FF0E09F01220F331FE20F37
:10096000F31FE05CFE4F1F739081907C192B108366
:1009700019821A826CE00E94E60D9CE0899FB0010A
:10098000112440E050E09A01260F371FF901EE0FC5
:10099000FF1F2E0F3F1FF901E05CFE4F908196FD77
:1009A00016C04F5F5F4F4C30510569F781110FC082
:1009B0001092800082E08093810010928500109256
:1009C0008400B19A80916F00826080936F00E8810B
:1009D000F0E0CF01880F991FE80FF91FE05CFE4F90
:1009E0008081806480838881DF91CF911F910895F9
:1009F000FC0190913F019C30A0F481E0890F80932D
:100A00003F019083892F90E0FC01EE0FFF1F8E0FB6
:100A10009F1FFC01E05CFE4F8CED95E0928381838B
:100A200008958FEF808308951F920F920FB60F9253
:100A300011242F933F934F935F936F937F938F93E3
:100A40009F93AF93BF93EF93FF9380913E0187FFF6
:100A500005C010928500109284001BC020913E01B9
:100A6000022E000C330B80913F0190E028173907CC
:100A700084F480913E01082E000C990BFC01EE0FCE
:100A8000FF1F8E0F9F1FFC01E05CFE4F808186FDE3
:100A900015C080913E018F5F80933E0120913E0101
:100AA000022E000C330B80913F0190E0281739078C
:100AB000C4F480913E018C3064F113C080913E01FA
:100AC000082E000C990BFC01EE0FFF1F8E0F9F1FCD
:100AD000FC01E05CFE4F808160E08F730E940E029B
:100AE000D8CF8091840090918500049680329E44F6
:100AF00018F480E29EE405C0809184009091850006
:100B0000049690938900809388008FEF80933E0134
:100B10003BC0209184003091850080913E01082ED9
:100B2000000C990BFC01EE0FFF1F8E0F9F1FFC01A5
:100B3000E05CFE4F81819281820F931F9093890028
:100B40008093880080913E01082E000C990BFC01D7
:100B5000EE0FFF1F8E0F9F1FFC01E05CFE4F808198
:100B600086FF12C080913E01082E000C990BFC01FB
:100B7000EE0FFF1F8E0F9F1FFC01E05CFE4F808178
:100B800061E08F730E940E02FF91EF91BF91AF91D0
:100B90009F918F917F916F915F914F913F912F9195
:100BA0000F900FBE0F901F9018951F920F920FB6C7
:100BB0000F9211242F933F934F935F936F937F93E3
:100BC0008F939F93AF93BF93EF93FF9380E090E059
:100BD0000E947C01FF91EF91BF91AF919F918F9106
:100BE0007F916F915F914F913F912F910F900FBE29
:100BF0000F901F9018951F920F920FB60F9211240D
:100C0000AF92BF92CF92DF92EF92FF920F931F931A
:100C10002F933F934F935F936F937F938F939F9304
:100C2000AF93BF93CF93DF93EF93FF9380913C01FA
:100C300090913D01009771F0019709F03CC18091BE
:100C400078002091790090E0922B90933901809365
:100C5000380131C1809178002091790090E0922B89
:100C600090933B0180933A0180910B02811103C064
:100C700060E070E0EFC00091190210911A02A0909C
:100C80001702B09018026501E12CF12CC091090205
:100C9000D0910A02CE010D2E000CAA0BBB0B9C01B9
:100CA000AD0130584F4F5F4FC801A0E0B0E0BC012C
:100CB000CD016C197D098E099F090E94D60D2FEF79
:100CC0003FEF40E050E00E94730DC20ED31EE41EC1
:100CD000F51E80911602813009F0A2C080913A0180
:100CE00090913B0105968C159D0508F041C08091BF
:100CF0003A0190913B0180913A0190913B0196011C
:100D0000281B390BC901A0E0B0E09C01AD012550C2
:100D1000310941095109A8EAB0E00E94920D633BF4
:100D2000754A810591050CF580913A0190913B013E
:100D3000C81AD90AC601A0E0B0E09C01AD01255057
:100D4000310941095109A8EAB0E00E94920D2BEF48
:100D500030E040E050E00E94730DDA01C901895A89
:100D60009F4FAF4FBF4FBC0175C06FEF70E072C0B7
:100D700080913A0190913B0196012B5F3F4F2817DC
:100D8000390708F042C060E070E083E00E949602FC
:100D900080913A0190913B0120913A0130913B01C1
:100DA0002C193D09C901A0E0B0E09C01AD0125501E
:100DB000310941095109A8EAB0E00E94920D633B54
:100DC0007E448140910534F520913A0130913B01F8
:100DD0002C193D09C901A0E0B0E09C01AD012550EE
:100DE000310941095109A8EAB0E00E94920D2BEFA8
:100DF00031E040E050E00E94730DDA01C901895AE8
:100E00009F4FAF4FBF4FBC0107C06FEF70E083E053
:100E10000E9496026FEF70E08BE00E94960227C05E
:100E200081111EC00A151B0528F4882799278C1BE1
:100E30009D0B01C0CE01883E9340F4F02FEF30E0CF
:100E4000DE010E94F80D2FEF3FE740E050E00E94E6
:100E5000730DB90183E00E94960260E070E0DCCF80
:100E6000B60180910102909102020E94490181E045
:100E700090E00E947C011FC060E070E083E00E946F
:100E800096022091090230910A02C901330FAA0B80
:100E9000BB0B9C01AD012F5F3F4F4F4F5F4FAFEF3B
:100EA000B0E00E94920D21E030E84FEF5FEF0E942A
:100EB000730DB901B1CFFF91EF91DF91CF91BF9148
:100EC000AF919F918F917F916F915F914F913F91E2
:100ED0002F911F910F91FF90EF90DF90CF90BF90D7
:100EE000AF900F900FBE0F901F901895AF92BF92CA
:100EF000CF92DF92EF92FF920F931F93CF93DF93E6
:100F000000D000D0CDB7DEB76C015B018A018091C3
:100F1000130281117BC060E0141615063CF5809128
:100F200001010E940E0260E0809100010E940E0209
:100F30000E948C0A2FEF30E0D8010E94F80D2FEFAD
:100F40003FE740E050E00E94730DB901809103013A
:100F500029833A834B835C830E94960229813A81DC
:100F6000B901809102010E9496028EC0B7FC21C097
:100F7000809100010E940E020E948C0A60E070E0E5
:100F8000809102010E9496022091140230E0D50166
:100F90000E94F80D2FEF3FE740E050E00E94730DF4
:100FA000B901809103010E94960261E080910101E4
:100FB0002AC0809101010E940E020E948C0A60E00A
:100FC00070E0809103010E949602C5010B2C000C79
:100FD000AA0BBB0B9C01AD012F5F3F4F4F4F5F4FE3
:100FE000A0911502B0E00E94920D21E030E84FEF91
:100FF0005FEF0E94730DB901809102010E94960279
:1010000061E0809100010E940E023EC0E090030268
:10101000F0900402141615061CF06115710519F400
:101020006CED75E02EC080911C02AB01770F660B52
:10103000770B9A01AB0130584F4F5F4F882389F0EF
:10104000A8E1BCEF0E94A00D2FEF3FEF40E050E081
:101050000E94730DCA01B9016053784F8F4F9F4FA3
:1010600010C0A8EEB3E00E94920D2FEF3FEF40E0DA
:1010700050E00E94730DCA01B90168517C4F8F4F37
:101080009F4FC7010E944901D0920A02C0920902F3
:10109000B0923701A09236011093350100933401CC
:1010A0000F900F900F900F90DF91CF911F910F91A4
:1010B000FF90EF90DF90CF90BF90AF900895809118
:1010C0001C02882359F086E08093030185E0809319
:1010D000020188E08093010187E00AC085E08093E7
:1010E000030186E08093020187E08093010188E09C
:1010F0008093000180911B02880F8093BA0082ECDC
:1011000090E09093AD018093AC018EEC90E09093D1
:10111000B1018093B0011092870110928601109264
:101120008901109288011092D40181E08093D60148
:101130001092D50161E082E10E940E0261E083E13C
:101140000E940E028091B9008E7F8093B900809139
:10115000B9008D7F8093B90080E28093B80085E468
:101160008093BC000895EF92FF920F931F93CF934B
:10117000DF931F92CDB7DEB7FC0121E020930B0275
:101180003FB7F8948091050290910602A091070262
:10119000B09108023FBF80930C0290930D02A09380
:1011A0000E02B0930F0290819330C1F18F01943001
:1011B00028F4913071F09230A1F071C0943009F4AC
:1011C0003FC0953009F06BC000E112E0E12CF12C3A
:1011D00058C08181833008F462C064818281938128
:1011E00014C08181863008F45AC0468157816481D9
:1011F0007581828193810E947607F801818189300F
:1012000008F44DC06285808591850F90DF91CF9164
:101210001F910F91FF90EF900C94D501818188234D
:10122000F1F1628162FB662760F9622782E00F902C
:10123000DF91CF911F910F91FF90EF900C940E02D0
:101240008FE0818382818F3051F583819481019772
:1012500031F58FE03296A0E1B2E001900D928A95CF
:10126000E1F70F90DF91CF911F910F91FF90EF90D9
:101270000C945F08FFEFEF1AFF0A8FE0E816F10405
:1012800071F0F80161918F01C70169830E945D0DC2
:101290006981681779F3C7010E94650DEBCF0F9044
:1012A000DF91CF911F910F91FF90EF900895DF9202
:1012B000EF92FF920F931F93CF93DF93CDB7DEB7DB
:1012C000C158D1090FB6F894DEBF0FBECDBFCE0115
:1012D00001967C018C0181E8D82EDE0C909186016C
:1012E00080918701981749F08CEB92E00E940801E9
:1012F000F80181938F01DE12F1CF80911D028823C6
:1013000019F0C7010E94B308CF57DF4F0FB6F8940A
:10131000DEBF0FBECDBFDF91CF911F910F91FF9028
:10132000EF90DF900895CF92DF92EF92FF920F93AC
:101330001F93CF93DF936C017A018B01C0E0D0E063
:10134000CE15DF0589F0D8016D918D01D601ED91A3
:10135000FC910190F081E02DC6010995892B11F4D3
:101360007E0102C02196ECCFC701DF91CF911F9182
:101370000F91FF90EF90DF90CF900895FC01918D39
:10138000828D981761F0828DDF01A80FB11D5D96E7
:101390008C91928D9F5F9F73928F90E008958FEF55
:1013A0009FEF0895FC01918D828D981731F0828D09
:1013B000E80FF11D858D90E008958FEF9FEF089560
:1013C000FC01918D228D892F90E0805C9F4F821BC4
:1013D00091098F73992708958FE192E00E94E009A7
:1013E00021E0892B09F420E0822F0895FC01848DEF
:1013F000DF01A80FB11DA35ABF4F2C91848D90E03F
:1014000001968F739927848FA689B7892C93A08919
:10141000B1898C9180648C93938D848D981306C0D0
:101420000288F389E02D80818F7D80830895EF927B
:10143000FF920F931F93CF93DF93EC0181E0888F8E
:101440009B8D8C8D981305C0E889F989808185FD75
:1014500024C0F62E0B8D10E00F5F1F4F0F73112766
:10146000E02E8C8DE8120CC00FB607FCFACFE8898D
:10147000F989808185FFF5CFCE010E94F609F1CF71
:101480008B8DFE01E80FF11DE35AFF4FF0820B8FA9
:10149000EA89FB898081806207C0EE89FF896083C9
:1014A000E889F98980818064808381E090E0DF9120
:1014B000CF911F910F91FF90EF900895CF93DF93FD
:1014C000EC01888D8823C9F0EA89FB89808185FD3C
:1014D00005C0A889B9898C9186FD0FC00FB607FC9D
:1014E000F5CF808185FFF2CFA889B9898C9185FFDE
:1014F000EDCFCE010E94F609E7CFDF91CF9108959D
:1015000080E090E0892B29F00E94EC0981110C9475
:10151000000008950E94FF0DCF92DF92EF92FF929C
:101520000E94F5026B017C010E94F502DC01CB01F7
:101530008C199D09AE09BF09883E9340A105B105EC
:1015400098F3FF90EF90DF90CF9008951F920F9245
:101550000FB60F9211242F933F934F935F936F9386
:101560007F938F939F93AF93BF93EF93FF938FE1FD
:1015700092E00E94F609FF91EF91BF91AF919F9188
:101580008F917F916F915F914F913F912F910F902C
:101590000FBE0F901F9018951F920F920FB60F92CB
:1015A00011242F938F939F93EF93FF93E0912F023A
:1015B000F09130028081E0913502F091360282FD97
:1015C00012C09081809138028F5F8F732091390211
:1015D000821751F0E0913802F0E0E15EFD4F958F07
:1015E0008093380201C08081FF91EF919F918F918C
:1015F0002F910F900FBE0F901F901895EFE1F2E022
:101600001382128288EE93E0A0E0B0E08483958399
:10161000A683B78327E131E03183208325EC30E0D6
:101620003587248724EC30E03787268720EC30E0AC
:10163000318B208B21EC30E0338B228B22EC30E09D
:10164000358B248B26EC30E0378B268B118E128E57
:10165000138E148EECEBF2E0138212828483958356
:10166000A683B78387E291E09183808388E593E046
:101670000E94F80485E593E00E94F80482E593E077
:101680000E94F8048FE493E00C94F804789484B5F5
:10169000826084BD84B5816084BD85B5826085BD6E
:1016A00085B5816085BD80916E00816080936E00FC
:1016B00010928100809181008260809381008091EE
:1016C000810081608093810080918000816080939F
:1016D00080008091B10084608093B1008091B0005F
:1016E00081608093B00080917A00846080937A005A
:1016F00080917A00826080937A0080917A008E7F58
:1017000080937A0080917A00806880937A001092AA
:10171000C10082E480937C0080917A008064809391
:101720007A0080917A0086FDFCCF8091780020912C
:10173000790090E0922B9093C9028093C80261E0F7
:1017400080E10E945A0261E080E10E940E02E09175
:101750002F02F091300282E08083E0912B02F09121
:101760002C021082E0912D02F0912E0289E18083FB
:1017700010923702E0913302F091340286E08083C8
:10178000E0913102F0913202808180618083E091AA
:101790003102F0913202808188608083E0913102D1
:1017A000F0913202808180688083E0913102F09173
:1017B000320280818F7D808300E112E0C0E0D0E0C2
:1017C000CE010E945D0DF80181938F012196CF30EB
:1017D000D105B1F7809110028F3031F48091110260
:1017E00090911202019749F08FE0E4E0F1E0A0E16E
:1017F000B2E001900D928A95E1F70E945F0861E0E6
:1018000083E00E945A0261E08BE00E945A0261E08C
:10181000809103010E945A0261E0809102010E94BE
:101820005A0261E0809101010E945A0261E08091B8
:1018300000010E945A0261E08DE00E945A0261E0BC
:1018400084E00E945A0261E084E00E940E0269E096
:1018500070E085E593E00E949C0462E070E082E520
:1018600093E00E949C0461E170E08FE493E00E94A9
:101870009C0461E081E10E945A0261E089E00E94DB
:101880005A0261E089E00E940E0282E593E09093A3
:1018900004028093030285E593E090930202809313
:1018A000010260E08AE00E945A0287E599E0909385
:1018B00000028093FF0180917A00886080937A0013
:1018C00080E187BD80916E00826080936E0095E01C
:1018D000492E512C26E0622E712CC7E0D0E004E0A6
:1018E00010E033E0E32EF12C42E0C42ED12C58E07E
:1018F000A52EB12C88248394912C8FE192E00E9434
:10190000E009892B09F4A4C08FE192E00E94BE098E
:10191000E0914B03F0914C03E930F10508F087C0EA
:10192000EC5CFF4F0C94F20D8E3F29F490924C0327
:1019300080924B03E2CF853229F450924C034092BF
:101940004B03DBCF8033C9F6B0924C03A0924B031C
:10195000D4CF8093CB029FEF980F97FD68C0809300
:101960004E039093CB02D0924C03C0924B03C5CF51
:101970008093CA0290914E03890F80934E03109278
:101980004D038091CB028823C1F0F0924C03E0928A
:101990004B03B3CFE0914D0321E02E0F20934D0375
:1019A000F0E0E653FD4F828390914E03890F8093C0
:1019B0004E038091CB022813A0CF10934C030093C9
:1019C0004B039BCF10924C0310924B0390914E030C
:1019D000891393CF31C0843411F0823529F4709289
:1019E0004C0360924B0389CFD0934C03C0934B03BD
:1019F00084CF853209F081CFFFEF29E688E1F150ED
:101A000020408040E1F700C0000011C0853209F09D
:101A100074CF0DC0803259F498E088E10FB6F89485
:101A2000A895809360000FBE90936000FFCF109246
:101A30004C0310924B0361CF80911D02882321F04B
:101A40008091CA02823021F08AEC92E00E94B308B1
:101A500080910C0290910D02A0910E02B0910F02A4
:101A6000805E9C4FAF4FBF4F2FB7F8944091050257
:101A70005091060260910702709108022FBF8417EF
:101A80009507A607B70760F410920B0240E050E0FC
:101A900060E070E08091090290910A020E9476074E
:101AA00080910B02882311F061E001C060E08DE0BD
:101AB0000E940E020E94800A1DCFF999FECF92BDAE
:101AC00081BDF89A992780B50895262FF999FECF00
:101AD0001FBA92BD81BD20BD0FB6F894FA9AF99A4B
:101AE0000FBE01960895052E97FB1EF400940E94E8
:101AF0008A0D57FD07D00E94A50D07FC03D04EF4B8
:101B00000C948A0D50954095309521953F4F4F4F3D
:101B10005F4F089590958095709561957F4F8F4F99
:101B20009F4F08950E94C70DA59F900DB49F900DE3
:101B3000A49F800D911D11240895B7FF0C94920D60
:101B40000E94920D821B930B0895A1E21A2EAA1BEC
:101B5000BB1BFD010DC0AA1FBB1FEE1FFF1FA2175D
:101B6000B307E407F50720F0A21BB30BE40BF50B5A
:101B7000661F771F881F991F1A9469F760957095E3
:101B8000809590959B01AC01BD01CF010895A29F66
:101B9000B001B39FC001A39F700D811D1124911D41
:101BA000B29F700D811D1124911D0895DB018F934B
:101BB0009F930E94920DBF91AF91A29F800D911DA6
:101BC000A39F900DB29F900D11240895991B79E069
:101BD00004C0991F961708F0961B881F7A95C9F7BD
:101BE00080950895EE0FFF1F0590F491E02D099464
:101BF0000E94C70DB7FF0895821B930B089581E0E3
:0C1C000090E0F8940C94040EF894FFCFD0
:101C0C00080706050F010000C8C8004501BC020802
:101C1C0000000000000000170A9309E009BE09D279
:101C2C00095E0A00000000380124011C010801F9BA
:041C3C0000F80000AC
:107000000C9434380C9451380C9451380C945138F9
:107010000C9451380C9451380C9451380C945138CC
:107020000C9451380C9451380C9451380C945138BC
:107030000C9451380C9451380C9451380C945138AC
:107040000C9451380C9451380C9451380C9451389C
:107050000C9451380C9451380C9451380C9451388C
:107060000C9451380C94513811241FBECFEFD8E046
:10707000DEBFCDBF11E0A0E0B1E0E6EEF8E702C070
:1070800005900D92A033B107D9F722E0A0E3B1E05B
:1070900001C01D92AD33B207E1F70E944A3A0C9449
:1070A000713C0C940038E0E0F0E0859194910196F9
:1070B00031F4E2E0F0E085919491019629F0E091BD
:1070C0003001F0913101099408959091C00095FF2D
:1070D000FCCF8093C6000895CF93982F95959595F2
:1070E00095959595905D8F708A3014F0C7E501C035
:1070F000C0E3C80F892F0E9465388C2FCF910C9464
:107100006538CF92DF92EF92FF92C12CD12C76019D
:107110008091C00087FD10C08FEFC81AD80AE80A16
:10712000F80A81E2C81681EAD80687E0E806F10489
:1071300078F30E945338ECCF8091C600FF90EF9017
:10714000DF90CF900895CF930E948138C82F0E947E
:107150006538C13614F089EA03C0C0331CF080EDF5
:107160008C0F01C08C2FCF910895CF930E94A3382C
:10717000C82F0E94A33890E1C99F800D1124CF91A0
:107180000895CF93C82FCC2321F00E948138C1509D
:10719000FACFCF910895CF93C82F0E9481388032C3
:1071A00051F484E10E9465388C2F0E94653880E19B
:1071B000CF910C946538809132018F5F80933201BA
:1071C000853019F4CF910C945338CF9108950E94D3
:1071D0008138803231F484E10E94653880E10C947A
:1071E0006538809132018F5F80933201853011F4D0
:1071F0000C94533808958823B1F02D9A2FEF30E77F
:1072000092E0215030409040E1F700C000002D98FE
:107210002FEF30E792E0215030409040E1F700C07E
:1072200000008150E8CF08959B01AC01A3E0B0E0DD
:107230000E94573C9B01AC01E2E0969587957795BB
:107240006795EA95D1F77E5E85489F4F0E94353C51
:10725000235020933C0220933B02599A519A509814
:107260000895599890913C029A95F1F798E080FF23
:1072700002C0599A01C05998859520913C022A95DF
:10728000F1F79150A1F7599A80913C028A95F1F754
:107290000895CF93DF93EC018991882319F00E9420
:1072A0003139FACFDF91CF910895489BFECF4899AD
:1072B000FECF20913B02822F90E0959587958A958D
:1072C000F1F798E080E0322F3A95F1F786954899EA
:1072D00080689150C1F7489BFECF0895CF93DF930C
:1072E000EC018991882349F00E9431398FEC97E0B5
:1072F0000197F1F700C00000F4CFDF91CF9108951E
:107300000E946E3984E091E00E946E390E945539E6
:107310008E33E1F708950F931F93CF93DF93EC0122
:107320008E018881882349F00E9455392196F80101
:1073300090818917A9F380E001C081E0DF91CF91AE
:107340001F910F9108953A9A42983299FECF2FEFEC
:1073500081EE94E0215080409040E1F700C00000B1
:10736000429A329BFECF2FE788E391E02150804084
:107370009040E1F700C00000089581E091E00E9494
:107380006E398FE19EE40197F1F700C0000087E0BD
:1073900091E00E946E398FE19EE40197F1F700C001
:1073A000000008958BE091E00E946E398FE19EE429
:1073B0000197F1F700C0000008950E94BD398BE1EC
:1073C00091E00E9480390E94D2398FE19EE40197BA
:1073D000F1F700C000000895CF93DF9382E480931B
:1073E0007C0086E880937A0080917A0080648093A4
:1073F0007A0080917A0086FDFCCFC0917900D0910F
:10740000780090917A009F7790937A000E94A33938
:1074100060E076E980E090E00E94143981E191E03B
:107420000E948B39811107C060E072EC81E090E02E
:107430000E94143908C08D2F90E09C2B855691092D
:10744000873C910520F50E94BD398AE191E00E94B8
:1074500080398FE191E00E9480398AE291E00E94B8
:1074600080390E94D2398FE19EE40197F1F700C084
:1074700000000E94A33960E076E980E090E00E947D
:10748000143981E191E0DF91CF910C948B39DF9138
:10749000CF91089594B784B7877F84BF88E10FB6F2
:1074A000F89480936000109260000FBE93FF0E94DA
:1074B000EC393A9A429A0000E0E0F0E0E49182E090
:1074C0008093C00089E18093C4001092C50088E1D8
:1074D0008093C10086E08093C2005098589A259A04
:1074E00081E00E94FB38FF24F3940E9481388033AE
:1074F00009F442C08133E1F40E948138803209F0FE
:10750000ABC184E10E94653881E40E94653886E55C
:107510000E94653882E50E94653880E20E946538E5
:1075200089E40E94653883E50E94653880E58BC157
:10753000803439F40E9481388638F0F00E94813816
:107540001BC08134A1F40E948138803811F482E09C
:1075500003C0813821F481E00E94CB38C6CF823845
:1075600011F480E1F9CF8839F1F583E0F5CF823469
:1075700031F484E10E94C1380E94E738B6CF8534E7
:1075800011F485E0F7CF982F9D7F9035A9F38135D1
:1075900029F40E94E7380E945338A7CF853549F473
:1075A0000E948138809339020E94813880933A0288
:1075B000E3CF8635D1F40E948138803389F40E946C
:1075C00081380E948138182F0E948138111102C021
:1075D0008EE1C2CF113011F485E9BECF8FE0BCCF70
:1075E00083E00E94C13880E0B7CF843609F0C6C07E
:1075F0000E948138809338020E948138809337023C
:10760000809136028E7F809336020E9481388534C5
:1076100029F48091360281608093360206E311E0FE
:1076200080913702909138029801265331402817F3
:10763000390730F40E948138F80181938F01F0CF2F
:107640000E948138803209F007C120913602809172
:10765000390290913A0220FF29C0880F991F909318
:107660003A0280933902E6E3F1E08091370290918B
:1076700038029F01265331402817390708F07CC093
:10768000F999FECF8091390290913A0292BD81BD65
:10769000819180BDFA9AF99A8091390290913A02CB
:1076A000019690933A0280933902DFCF20913A02FB
:1076B000220F220B2F2120933501880F991F9093C1
:1076C0003A02809339028091370280FF09C080918D
:1076D00037029091380201969093380280933702D6
:1076E000F894F999FECF1127E0913902F0913A020E
:1076F000C6E3D1E08091370290913802103091F4C6
:107700000091570001700130D9F303E00093570056
:10771000E8950091570001700130D9F301E1009321
:107720005700E895099019900091570001700130B9
:10773000D9F301E000935700E8951395103498F0C1
:1077400011270091570001700130D9F305E0009333
:107750005700E8950091570001700130D9F301E11D
:1077600000935700E8953296029709F0C7CF103082
:1077700011F00296E5CF112484E165C0843709F049
:1077800052C00E948138809338020E9481388093D1
:1077900037028091390290913A02880F991F909395
:1077A0003A02809339020E948138909136028534E2
:1077B00011F4916001C09E7F909336020E9481383F
:1077C000803209F092CE84E10E94653800E010E03A
:1077D000809137029091380208171907B0F580910F
:1077E000360280FF0BC0F999FECF8091390290914B
:1077F0003A0292BD81BDF89A80B507C081FD07C0ED
:10780000E0913902F0913A0284910E9465388091AA
:10781000390290913A02019690933A02809339028C
:107820000F5F1F4FD5CF8537A1F40E94813880327A
:1078300099F484E10E9465388EE10E94653885E9FB
:107840000E9465388FE00E94653880E10E946538AB
:107850004CCE863709F4C7CE809132018F5F80937A
:107860003201853009F041CE96CEA1E21A2EAA1B34
:10787000BB1BFD010DC0AA1FBB1FEE1FFF1FA217E0
:10788000B307E407F50720F0A21BB30BE40BF50BDD
:10789000661F771F881F991F1A9469F76095709566
:1078A000809590959B01AC01BD01CF0108950E9488
:1078B000623CA59F900DB49F900DA49F800D911DDB
:1078C00011240895A29FB001B39FC001A39F700D22
:1078D000811D1124911DB29F700D811D1124911DD8
:0678E0000895F894FFCFAB
:1078E600802424240D0A002B0D0A002D2D2D0D0AAF
:1078F60000255245424F4F54250053462C31005324
:107906002D2C5243536E61696C0053552C3338004D
:040000030000700089
:00000001FF
